:020000040800F2
:10000000300900209901000821220008DF1F0008A4
:100010001D220008AF060008CB2B000800000000DE
:10002000000000000000000000000000DD280008C3
:10003000B30600080000000039270008DF28000888
:10004000B3010008B3010008B3010008B3010008C0
:10005000B3010008B3010008B3010008B3010008B0
:10006000B3010008B3010008B3010008B3010008A0
:10007000B3010008B3010008B3010008B301000890
:10008000B3010008B3010008B3010008B301000880
:10009000B3010008B3010008B3010008B301000870
:1000A000B3010008B3010008B3010008B301000860
:1000B000B3010008B3010008B3010008B301000850
:1000C000B3010008B3010008B3010008B301000840
:1000D000B3010008B3010008B3010008B301000830
:1000E000B3010008B3010008B301000800F002F8F2
:1000F00000F042F80AA090E8000C82448344AAF180
:100100000107DA4501D100F037F8AFF2090EBAE87D
:100110000F0013F0010F18BFFB1A43F0010318473B
:10012000D8360000F8360000103A24BF78C878C1ED
:10013000FAD8520724BF30C830C144BF04680C60ED
:10014000704700000023002400250026103A28BF35
:1001500078C1FBD8520728BF30C148BF0B60704739
:10016000642900F07580782900F0AE800020704787
:100170001FB51FBD10B510BD00F05FFA1146FFF7A7
:10018000F7FF02F057FD00F07DFA03B4FFF7F2FF2E
:1001900003BC00F085FA0000094880470948004781
:1001A000FEE7FEE7FEE7FEE7FEE7FEE7FEE7FEE727
:1001B000FEE7FEE704480549054A064B7047000084
:1001C0004D290008ED000008300300203009002010
:1001D00030050020300500200FB41CB5074B06AADF
:1001E0007B4469460090059800F00FFA00206946AC
:1001F00000F01EFA1CBC5DF814FB00004D0400006A
:1002000070B5044685690068C10601D5302600E056
:100210002026C00707D070BDD4E9012130469047A1
:10022000206A401C20626D1EF6D570BD70B5044674
:1002300085690078C00707D170BDD4E9012120206D
:100240009047206A401C20626D1EF6D570BD0000EC
:100250002DE9F0410646002410687529314616A59F
:1002600010D0AFF30080002802DA404213A507E067
:1002700031688A0701D512A502E0490704D511A506
:10028000012401E0AFF3008000210A2206F12407D7
:1002900009E0B0FBF2FCB0FBF2F302FB1C003030D3
:1002A00078541846491C0028F3D123462A46304684
:1002B000BDE8F04100F04BB9000000002D00000047
:1002C0002B0000002000000070B504460D462146BA
:1002D0001068AFF300802188090502D50F4A7A44DF
:1002E00002E00E4A7A440E32002104F1240305E0B4
:1002F00000F00F060009965D5E54491C0028F7D1F6
:1003000020780023000704D5702D02D009B1022304
:1003100011322046BDE8704000F019B901340000E8
:100320002DE9F05F894604464FF0000ADFF824B15A
:10033000FB44C0F820A02046E168884700287DD013
:10034000252806D0D4E901219047206A401C20626C
:10035000F1E700255F462046E168884720280646E9
:1003600007DB312E05D2B81910F8200C08B105436F
:10037000F1E7A80701D525F00405C4F81CA0002763
:10038000C4F818A02A2E09D0304602F03DFC38B33C
:1003900004EB8708303EC8F8186019E059F8041BD0
:1003A000204604EB87029161E1688847012F0646E9
:1003B00018D1E069002820DA25F020051DE0D8F8E2
:1003C000180000EB800006EB40003038C8F8180039
:1003D0002046E1688847064602F016FC0028EED168
:1003E000012F0AD02E2E08D12046E16888477F1CB5
:1003F0000646022F45F02005C4DBA069002803DA79
:10040000404245F00105A061E80701D025F0100544
:10041000A6B1A6F14100192802D8203645F400659E
:100420004A463146204625604D46FFF799FE60B1A9
:10043000012807D0ED1D25F0070000E007E000F1DE
:10044000080978E705F1040975E730467AE7206A7C
:10045000BDE8F09FD733000010B5431C02E010F850
:10046000011B71B18107FAD14FF0013202C88C1A19
:100470008C4314EAC211F9D0C01A0A0603D0C01E78
:1004800010BDC01A10BD0A0401D0801E10BD0902A3
:10049000FCD0401E10BD10B5203AC0F00B80B1E872
:1004A0001850203AA0E81850B1E81850A0E81850A9
:1004B000BFF4F5AF5FEA027C24BFB1E81850A0E8B2
:1004C000185044BF18C918C0BDE810405FEA827CCC
:1004D00024BF51F8043B40F8043B08BF7047D207E3
:1004E00028BF31F8023B48BF11F8012B28BF20F884
:1004F000023B48BF00F8012B70474FF0000200B5E7
:10050000134694469646203922BFA0E80C50A0E836
:100510000C50B1F12001BFF4F7AF090728BFA0E8E4
:100520000C5048BF0CC05DF804EB890028BF40F8B0
:10053000042B08BF704748BF20F8022B11F0804FF2
:1005400018BF00F8012B70477047704770472DE9BE
:10055000F0470D4699469246044600F1240801688A
:10056000880604D5E06921F01001216000E0012037
:10057000A84201DD471B00E00027A1697A1902EBC0
:100580000900081AA0612078C00602D42046FFF7AF
:1005900037FE002608E0D4E901211AF8060090474A
:1005A000206A401C761C20624E45F4DB2078C00691
:1005B0000AD52046FFF724FE06E0D4E901213020C9
:1005C0009047206A401C2062381EA7F10107F4DC26
:1005D00007E0D4E9012118F805009047206A401C83
:1005E0002062281EA5F10105F3DC2046FFF71EFE60
:1005F0002078000602D50220BDE8F0870120FBE745
:1006000001694A1C02610878704700B58FB0CDE9D6
:1006100001310021059105497944CDE903101146C6
:100620006846FFF77DFE0FB000BD0000E5FFFFFF4D
:100630000A6802F8010B0A607047754600F02CF852
:10064000AE4605006946534620F00700854618B0BF
:1006500020B5FFF7AFFDBDE820404FF000064FF09A
:1006600000074FF000084FF0000B21F00701AC46E7
:10067000ACE8C009ACE8C009ACE8C009ACE8C00906
:100680008D46704710B50446AFF300802046BDE8A4
:100690001040FFF77ABD000000487047D0020020EC
:1006A00001491820ABBEFEE726000200704700BFDC
:1006B000FEE7704772B600BFFEE7000070B5044663
:1006C00000F0B0F906462546681C10B104480078D1
:1006D000054400BF00F0A6F9801BA842FAD370BD04
:1006E000300000202DE9F8470346002294466EE1D1
:1006F0004FF0010808FA02F4D1F8008008EA04007B
:10070000A0427DD1DFF8DCA2D1F80480A8EB0A0971
:10071000D0453AD014DCB8F1030F50D009DCB8F161
:10072000000F31D0B8F1010F1CD0B8F1020F49D140
:1007300020E0B8F1110F18D0B8F1120F42D11EE02D
:10074000B9F5881F25D006DCB9F5803F20D0B9F572
:10075000801F37D11AE0B9F5001F18D0B9F5041F72
:1007600030D117E0D1F80CC02DE0D1F80C8008F1A1
:10077000040C28E0D1F80C8008F1080C23E0D1F833
:100780000C8008F10C0C1EE000BF00BF00BF00BFD2
:1007900000BF00BFD1F80880B8F1000F02D14FF0C0
:1007A000040C0BE0D1F80880B8F1010F03D14FF031
:1007B000080C1C6102E04FF0080C5C6103E04FF094
:1007C000000C00E000BF00BFFF2801D8984601E000
:1007D00003F104084646FF2802D84FEA820803E0E6
:1007E000A2F108084FEA88084746D6F800804FF083
:1007F0000F0909FA07F928EA09080CFA07F900E0D5
:1008000088E048EA0908C6F80080D1F8048008F0BA
:100810008058B8F1805F7DD100BFDFF8CC81D8F877
:10082000188048F00108DFF8C091C9F81880C84660
:10083000D8F8188008F00108CDF8008000BF00BF8C
:100840004FEAB9384FEA920958F829504FEA8278AE
:100850004FEA18794FF00F0808FA09F825EA080559
:10086000DFF88881434502D14FF0000816E0DFF839
:100870008081434502D14FF001080FE0DFF8748119
:10088000434502D14FF0020808E0DFF86C81434590
:1008900002D14FF0030801E04FF004084FEA8279DB
:1008A0004FEA197908FA09F848EA0505DFF84C819A
:1008B0004FEA920948F82950D1F8048008F48018CA
:1008C000B8F5801F0AD1DFF83881D8F8008048EAEF
:1008D0000008DFF82C91C9F8008009E0DFF82081DA
:1008E000D8F8008028EA0008DFF81491C9F80080E1
:1008F000D1F8048008F40018B8F5001F10D1DFF813
:10090000008108F10408D8F8008048EA0008DFF800
:10091000F09000E05AE009F10409C9F800800DE008
:10092000DFF8DC8008F10408D8F8008028EA000825
:10093000DFF8CC9009F10409C9F80080D1F80480EF
:1009400008F40038B8F5003F0ED1DFF8B480A8F104
:100950000408D8F8008048EA0008DFF8A490A9F15C
:100960000409C9F800800DE0DFF89480A8F10408BC
:10097000D8F8008028EA0008DFF88490A9F104097B
:10098000C9F80080D1F8048008F48038B8F5803FB9
:100990000ED1DFF86C80A8F10808D8F8008048EA8A
:1009A0000008DFF85C90A9F10809C9F800800DE0A3
:1009B000DFF84C80A8F10808D8F8008028EA000881
:1009C000DFF83C90A9F10809C9F80080521CD1F861
:1009D000008028FA02F8B8F1000F7FF489AEBDE874
:1009E000F8870000000011100010024000080140CC
:1009F000000C0140001001400014014008000140BB
:100A00000804014010B5C26821EA020302EA0104A9
:100A100043EA0443036110BD0AB1016101E00B0424
:100A200003617047014800687047000028000020FB
:100A300070B504460CB9012070BD94F83D0028B98A
:100A4000002084F83C00204600F0DAF8242084F8E6
:100A50003D002068006820F00100216808602068DF
:100A6000006840F40040216808602068006820F4B5
:100A700000402168086000F08BFA05465C49606818
:100A8000884206D85B48854201D2012007E0002059
:100A900005E05948854201D2012000E000200128EC
:100AA00000D1C9E75548B5FBF0F62068406820F052
:100AB0003F003043216848604D496068884201D852
:100AC000701C07E04FF4967070434FF47A71B0FBDE
:100AD000F1F0401C2168096A21F03F0108432168B8
:100AE000086243496068884214D8681E61684900FA
:100AF000B0FBF1F0401CC0F30B00042801D204202D
:100B00003DE0681E61684900B0FBF1F0401CC0F395
:100B10000B0034E0A06838B9681E616801EB410140
:100B2000B0FBF1F0401C0AE0681E616801EBC102F5
:100B300002EB0111B0FBF1F0401C40F48040C0F327
:100B40000B0008B901201AE0A06848B9681E616866
:100B500001EB4101B0FBF1F0401CC0F30B000CE0D5
:100B6000681E616801EBC10202EB0111B0FBF1F0FC
:100B7000401CC0F30B0040F4804040F4004021686A
:100B8000C9694CF6FF72914308432168C861D4E9F2
:100B9000070108432168096821F0C0010843216862
:100BA0000860D4E9031008432168896848F2FF32DD
:100BB0009143084321688860D4E90501084321680E
:100BC000C96821F0FF0108432168C86020680068F7
:100BD00040F001002168086000202064202084F893
:100BE0003D000020206384F83E0000BF24E70000A1
:100BF000A086010080841E0000093D0040420F00D5
:100C000010B586B004460020029003900490059031
:100C100015492068884225D100BF1448806940F0FA
:100C20000800124988610846806900F008000190B8
:100C300000BF00BFC0200290122003900320059047
:100C400002A90B48FFF74EFD00BF0848C06940F4F9
:100C500000100649C8610846C06900F40010019000
:100C600000BF00BF06B010BD00540040001002409D
:100C7000000C014003480068034909780844014911
:100C800008607047280000203000002010B5084898
:100C9000006840F0100006490860032000F098F852
:100CA0000F2000F007F800F02BF8002010BD000026
:100CB0000020024070B504460E4800784FF47A7167
:100CC000B1FBF0F00C490968B1FBF0F5284600F0E3
:100CD00048FF08B1012070BD102C07D20022214628
:100CE000501E00F037F80548046001E00120F2E7EB
:100CF0000020F0E730000020340000202C0000200D
:100D000008B500BF1148806940F001000F498861B3
:100D10000846806900F00100009000BF00BF00BFDE
:100D20000846C06940F08050C8610846C06900F0BC
:100D30008050009000BF00BF00BF0549486820F008
:100D4000E06040F00070486000BF08BD0010024045
:100D5000000001402DE9F05F80460D461646002751
:100D600001F036FF074639462A46334601F00700B0
:100D7000C0F1070ABAF1040F02D94FF0040A01E0EA
:100D8000C0F1070AD14600F1040ABAF1070F02D2F6
:100D90004FF0000A01E0A0F1030AD4464FF0010A27
:100DA0000AFA09FAAAF1010A0AEA020A0AFA0CFA8C
:100DB0004FF0010B0BFA0CFBABF1010B0BEA030B31
:100DC0004AEA0B042146404601F00AFFBDE8F09FC5
:100DD00000BF00F00702064B19684FF6FF031940E9
:100DE000044B0B4343EA0221014B196000BF7047DB
:100DF0000CED00E00000FA0570B504460D460CB994
:100E0000012070BD5A48006800F00700A8420ED2C9
:100E10005748006820F007002843554908600846F5
:100E2000006800F00700A84201D00120E9E720781F
:100E300000F0020002281DD1207800F004000428F0
:100E400005D14C48406840F4E0604A494860207849
:100E500000F00800082805D14648406840F460507A
:100E6000444948604348406820F0F000A1680843C6
:100E700040494860207800F0010078B3606801289C
:100E800006D13C48006800F4003090B90120B8E772
:100E90006068022806D13748006800F0007040B949
:100EA0000120AEE73348006800F0020008B90120D5
:100EB000A7E73048406820F00300616808432D49E7
:100EC0004860FFF7AFFD064609E0FFF7ABFD801B6A
:100ED00041F28831884202D9032092E707E0254891
:100EE000406800F00C006168B0EB810FEDD1204844
:100EF000006800F00700A8420ED91D48006820F0E5
:100F0000070028431A4908600846006800F00700F7
:100F1000A84201D0012074E7207800F004000428E2
:100F200007D11448406820F4E060E16808431149A3
:100F30004860207800F00800082808D10D48406873
:100F400020F46050216940EAC1000A49486000F07D
:100F50003FF808494968C1F30311074A515CC8408A
:100F60000649086006480068FFF7A4FE002048E72D
:100F70000020024000100240BE360008340000206D
:100F80002C00002001480068704700003400002059
:100F900000B5FFF7F7FF04494968C1F30221034A8E
:100FA000515CC84000BD000000100240CE36000871
:100FB00000B5FFF7E7FF04494968C1F3C221034ABE
:100FC000515CC84000BD000000100240CE36000851
:100FD00070B500210022002400230020134D696811
:100FE00001F00C05F5B1042D02D0082D19D101E056
:100FF0000F4819E00F4DC1F38346AB5D01F4803516
:1010000055B10A4D6D68C5F340450B4E725D084DF4
:101010005D43B5FBF2F402E0084D03FB05F4204606
:1010200002E000BF024800BF00BF70BD00100240D8
:1010300000127A00AC360008BC36000800093D00FA
:10104000F8B504460CB90120F8BD207800F0010085
:10105000002878D0F848406800F00C0004280CD034
:10106000F548406800F00C00082811D1F2484068AB
:1010700000F48030B0F5803F0AD1EF48006800F4FA
:10108000003000285FD0606800285CD10120DBE7D9
:1010900000BF6068B0F5803F06D1E748006840F4C3
:1010A0008030E549086028E0606858B9E248006887
:1010B00020F48030E04908600846006820F4802071
:1010C00008601AE06068B0F5A02F0BD1DA4800681C
:1010D00040F48020D84908600846006840F4803019
:1010E00008600AE0D448006820F48030D2490860E3
:1010F0000846006820F48020086000BF606888B15E
:10110000FFF790FC054606E0FFF78CFC401B6428C7
:1011100001D9032098E7C848006800F4003000288F
:10112000F2D010E0FFF77EFC054606E0FFF77AFC00
:10113000401B642801D9032086E7BF48006800F4FB
:1011400000300028F2D1207800F00200022857D1A8
:10115000B948406800F00C0050B1B748406800F052
:101160000C00082818D1B448406800F4803098B9C1
:10117000B148006800F0020020B12069012801D0C8
:10118000012061E7AC48006820F0F800616940EA9E
:10119000C100A949086033E02069E8B10120A749EE
:1011A0000860FFF73FFC054606E0FFF73BFC401BED
:1011B000022801D9032047E79F48006800F0020099
:1011C0000028F2D09C48006820F0F800616940EAED
:1011D000C1009949086013E0002098490860FFF7B2
:1011E00021FC054606E0FFF71DFC401B022801D943
:1011F000032029E79048006800F002000028F2D19F
:10120000207800F0080008282DD1A069B8B101208D
:101210008B490860FFF706FC054606E0FFF702FC75
:10122000401B022801D903200EE78348406A00F0E2
:1012300002000028F2D0012001F080FA13E0002023
:101240007F490860FFF7EEFB054606E0FFF7EAFB83
:10125000401B022801D90320F6E67748406A00F0D7
:1012600002000028F2D1207800F00400042873D195
:1012700000277148C06900F0805070B900BF6E4807
:10128000C06940F080506C49C8610846C06900F0F0
:101290008050009000BF00BF01276A48006800F43A
:1012A0008070B0B96748006840F480706549086094
:1012B000FFF7B8FB054606E0FFF7B4FB401B6428C8
:1012C00001D90320C0E65F48006800F48070002860
:1012D000F2D000BFE068012806D15748006A40F00C
:1012E00001005549086227E0E06858B95248006A91
:1012F00020F00100504908620846006A20F004000E
:10130000086219E0E06805280BD14B48006A40F0FC
:101310000400494908620846006A40F0010008627A
:101320000AE04548006A20F0010043490862084687
:10133000006A20F00400086200BFE068A0B1FFF777
:1013400071FB054609E0FFF76DFB401B41F2883158
:10135000884202D9032077E622E03748006A00F08D
:1013600002000028EFD012E0FFF75CFB054608E022
:10137000FFF758FB401B41F28831884201D9032016
:1013800062E62D48006A00F002000028F0D1012F2B
:1013900005D12948C06920F080502749C86100BFA5
:1013A000E069C8B32448406800F00C00082860D009
:1013B000E069022848D1002020490866FFF732FB87
:1013C000054606E0FFF72EFB401B022801D903204B
:1013D0003AE61948006800F000700028F2D1206A4F
:1013E000B0F5803F07D11448406820F40030A16870
:1013F000084311494860D4E9080108430E49496887
:1014000021F4741108430C49486001200B49086617
:10141000FFF708FB054607E03DE0FFF703FB401B35
:10142000022801D903200FE60348006800F000708D
:101430000028F2D02FE000000010024000004242DD
:101440008004424200700040002014490866FFF703
:10145000E9FA054606E0FFF7E5FA401B022801D944
:101460000320F1E50E48006800F000700028F2D17A
:1014700011E0E069012800D1E6E50948466806F474
:101480008031206A814204D106F47011606A814281
:1014900001D00120D8E50020D6E50000000042423E
:1014A0000010024010B504460CB9012010BD606A5E
:1014B00038B96068B0F5827F00D105E00021E161B4
:1014C00002E00021216161610021A16294F85100D4
:1014D00028B9002084F85000204600F043F802208C
:1014E00084F851002068006820F0400021680860FE
:1014F000A08800F48270218901F404410843A18985
:1015000001F400610843217C01F002010843217DC0
:1015100001F001010843218B01F400710843217F90
:1015200001F0380108432021095D01F080010843E2
:10153000218D01F400510843216808600421A0694D
:1015400001EA1040216848602068C06920F400600A
:101550002168C86100206065012084F851000020E6
:10156000A4E7000010B586B0044600200290039066
:10157000049005901949206888422DD100BF184871
:10158000806940F48050164988610846806900F4FB
:101590008050019000BF00BF00BF0846806940F046
:1015A000040088610846806900F00400019000BFD3
:1015B00000BFA0200290022003900320059002A902
:1015C0000848FFF78FF84020029000200390049015
:1015D00002A90448FFF786F806B010BD00300140AC
:1015E00000100240000801402DE9F84304468846F7
:1015F00016461D464FF0000994F85100012802D00C
:101600004FF00209A8E06068B0F5827F0DD1A068B4
:1016100058B9042084F851003346424641462046DA
:10162000009500F07EF9BDE8F88300BF94F8500003
:10163000012801D10220F6E7012084F8500000BF04
:10164000FFF7F0F90746B8F1000F00D016B94FF0D8
:10165000010981E0042084F8510000206065C4F88D
:101660003880A687E6872063A086E08620646064D1
:10167000A068B0F5004F0BD12068006820F0400052
:10168000216808602068006820F4804021680860B4
:101690002068006800F04000402805D020680068FD
:1016A00040F0400021680860E06810BB1DE0206841
:1016B000806800F0010050B12068007BA16B0870C9
:1016C000A06B401CA063E08F401EE0870DE0FFF799
:1016D000A9F9C01BA84201D3681C00B92DB94FF06D
:1016E0000309012084F8510036E0E08F0028DED1A4
:1016F00021E01DE02068806800F0010050B1206802
:10170000C068A16B0880A06B801CA063E08F401EA6
:10171000E0870DE0FFF786F9C01BA84201D3681CE3
:1017200000B92DB94FF00309012084F8510013E0EE
:10173000E08F0028DED13A462946204601F012F813
:1017400008B120206065606D10B14FF0010902E022
:10175000012084F8510000BF00BF002084F8500031
:1017600000BF48465FE72DE9F84F04468846164615
:101770001D464FF0000A00BF94F85000012802D126
:101780000220BDE8F88F012084F8500000BFFFF769
:1017900049F90746B14694F85100012802D04FF0AC
:1017A000020AB7E0B8F1000F00D016B94FF0010AF5
:1017B000B0E0032084F8510000206065C4F8308058
:1017C000A686E686A063A087E08760642064A068A0
:1017D000B0F5004F0BD12068006820F04000216870
:1017E00008602068006840F4804021680860206834
:1017F000006800F04000402805D02068006840F0F4
:10180000400021680860E068B0F5006F32D1606880
:1018100010B1B9F1010F09D1206B00882168C860AF
:10182000206B801C2063E08E401EE0861EE0206856
:10183000806800F0020002280AD1206B008821682D
:10184000C860206B801C2063E08E401EE0860DE0A7
:10185000FFF7E8F8C01BA84201D3681C00B92DB9F6
:101860004FF0030A012084F8510053E0E08E002875
:10187000DDD131E0606810B1B9F1010F09D1206B01
:10188000007821680873206B401C2063E08E401EA6
:10189000E0861EE02068806800F0020002280AD17D
:1018A000206B007821680873206B401C2063E08E59
:1018B000401EE0860DE0FFF7B5F8C01BA84201D33B
:1018C000681C00B92DB94FF0030A012084F85100BB
:1018D00020E0E08E0028DDD13A462946204600F07F
:1018E0007DFF08B120206065A06850B900BF0020CE
:1018F00000902068C068009020688068009000BF59
:1019000000BF606D10B14FF0010A02E0012084F8C1
:10191000510000BF00BF002084F8500000BF5046B7
:101920002FE72DE9FF5F0446884691461D460E9E2F
:10193000012002900020019000BF94F8500001287F
:1019400003D1022004B0BDE8F09F012084F85000CC
:1019500000BFFFF767F8074694F851B0606803903E
:10196000AA46BBF1010F0BD00398B0F5827F04D1DA
:10197000A06810B9BBF1040F02D002200190E9E089
:10198000B8F1000F03D0B9F1000F00D015B9012054
:101990000190DFE094F85100042802D0052084F87B
:1019A000510000206065C4F83890E587A587C4F829
:1019B0003080E586A586206460642068006800F0B9
:1019C0004000402805D02068006840F040002168B1
:1019D0000860E068B0F5006F4DD1606810B1BAF1F1
:1019E000010F09D1206B00882168C860206B801C22
:1019F0002063E08E401EE08636E02068806800F0BC
:101A00000200022810D1E08E70B1029801280BD19B
:101A1000206B00882168C860206B801C2063E08EEA
:101A2000401EE086002002902068806800F00100DF
:101A300068B1E08F58B12068C068A16B0880A06BC6
:101A4000801CA063E08F401EE08701200290FEF71B
:101A5000E9FFC01BB04207D3701C28B103200190DE
:101A6000012084F8510075E0E08E0028C5D1E08F98
:101A70000028C2D14DE0606810B1BAF1010F09D160
:101A8000206B007821680873206B401C2063E08E77
:101A9000401EE08637E02068806800F002000228DF
:101AA00010D1E08E70B1029801280BD1206B007824
:101AB00021680873206B401C2063E08E401EE08686
:101AC000002002902068806800F0010068B1E08F7B
:101AD00058B12068C068A16B0870A06B401CA0635F
:101AE000E08F401EE08701200290FEF79BFFC01BA5
:101AF000B04201D3701C00B92EB90320019001201F
:101B000084F8510026E0E08E0028C4D1E08F002840
:101B1000C1D13A463146204600F060FE20B1012096
:101B200001902020606515E0A06850B900BF00203A
:101B300000902068C068009020688068009000BF16
:101B400000BF606D10B10120019002E0012084F817
:101B5000510000BF00BF002084F8500000BF019872
:101B6000F0E670B504462546681EB0F1807F01D3CB
:101B700001200FE0681E4FF0E02148610F214FF077
:101B8000FF3001F02DF800204FF0E02188610720A0
:101B90000861002070BD000030B502460B4600BF52
:101BA00092F83C00012801D1022030BD012082F8CA
:101BB0003C0000BF022082F83D00106844681068B5
:101BC000816824F070041868044310684460104D64
:101BD0001068A8420BD01068B0F1804F07D00D4DAF
:101BE0001068A84203D00C4D1068A84205D121F01E
:101BF00080015868014310688160012082F83D002F
:101C000000BF002082F83C0000BF00BFCDE700000D
:101C1000002C0140000400400008004010B50446BC
:101C20000CB9012010BD94F83D0028B9002084F8BB
:101C30003C00204600F026F8022084F83D00211DDB
:101C4000206800F085FE012084F8460000BF84F87B
:101C50003E0001213F200155402001554120015502
:101C600000BF00BF012084F84200432001554420FA
:101C700001554520015500BF012084F83D0000209A
:101C8000D0E7000008B5094A016891420DD100BFB4
:101C90000749896941F40061054A916111468969E2
:101CA00001F40061009100BF00BF08BD002C01409D
:101CB00000100240014691F83D00012801D00120AA
:101CC0007047022081F83D00124B086898420BD003
:101CD0000868B0F1804F07D00F4B0868984203D0D6
:101CE0000E4B086898420CD10868806800F0070223
:101CF000062A0CD00868006840F001000B681860E4
:101D000005E00868006840F001000B6818600020DA
:101D1000D6E70000002C014000040040000800400D
:101D20002DE9F04104460D46002700BF94F83C0021
:101D3000012802D10220BDE8F081012084F83C0096
:101D400000BF022084F83D002068866826F07706F0
:101D500026F47F46206886602868502833D00CDC43
:101D6000202850D004DC00284BD0102851D149E065
:101D7000302849D040284CD139E060282DD0702837
:101D800007D0B0F5805F03D0B0F5005F41D10DE022
:101D900041E0D5E902136A68206800F013FE20686C
:101DA000866846F077062068866034E0D5E902133D
:101DB0006A68206800F006FE2068806840F4804071
:101DC0002168886027E0EA686968206800F00EFEF4
:101DD0005021206800F001FE1DE0EA686968206873
:101DE00000F017FE6021206800F0F7FD13E0EA68BC
:101DF0006968206800F0FAFD4021206800F0EDFDE0
:101E000009E000BF00BF00BF2968206800F0E5FDC1
:101E100001E0012700BF00BF012084F83D0000BFA2
:101E2000002084F83C0000BF384684E710B5044623
:101E30000CB9012010BDA06900B100E000BF94F80A
:101E4000410028B9002084F84000204600F02AF81C
:101E5000242084F841002068C06820F400502168E4
:101E6000C860204600F0EAFD2068006920F4904038
:101E7000216808612068406920F02A0021684861D3
:101E80002068C06840F400502168C8600020606489
:101E9000202084F8410084F842000020606300BFE5
:101EA000C8E7000010B586B00446002002900390F9
:101EB000049005901A49206888422ED100BF194825
:101EC000C06940F480201749C8610846C06900F421
:101ED0008020019000BF00BF00BF0846806940F02D
:101EE000080088610846806900F00800019000BF82
:101EF00000BF08150290022003900320059002A95C
:101F00000948FEF7EFFB4FF40060029000200390B9
:101F1000049002A90448FEF7E5FB06B010BD0000DE
:101F20000048004000100240000C01402DE9F84F2D
:101F300004460E46174699464FF0000A94F84100B1
:101F400020284AD106B117B90120BDE8F88F00203A
:101F50006064212084F84100FEF764FD8246A78476
:101F6000E784A068B0F5805F04D1206910B900252E
:101F7000B04602E035464FF000081BE05346002211
:101F800080212046CDF8009000F0D6FD08B1032056
:101F9000DBE745B9B8F80000C0F3080021684860E5
:101FA00008F1020803E02878216848606D1CE08C85
:101FB000401EE084E08C0028E0D1534600224021FE
:101FC0002046CDF8009000F0B7FD08B10320BCE733
:101FD000202084F841000020B7E70220B5E700BFC9
:101FE000FEE7000000B585B000200190029003904C
:101FF000049000BF3B48806940F010003949886177
:102000000846806900F01000009000BF00BF00BFCC
:102010000846806940F0200088610846806900F029
:102020002000009000BF00BF00BF0846806940F05C
:10203000040088610846806900F00400009000BF39
:1020400000BF00BF0846806940F00800886108466C
:10205000806900F00800009000BF00BF00224FF42C
:1020600000512148FEF7D8FC002240F21A411F48D7
:10207000FEF7D2FC002218211D48FEF7CDFC4FF4DC
:102080000050019001200290002003900220049053
:1020900001A91548FEF726FB40F21A4001900120E5
:1020A0000290002003900220049001A90F48FEF73F
:1020B00019FB1820019001200290002003900220BB
:1020C000049001A90A48FEF70DFB4FF480700190BF
:1020D00000200290039001A90548FEF703FB05B01C
:1020E00000BD000000100240001001400008014047
:1020F000000C014010B50B480B4908600B484860C4
:10210000002109488160C1604FF4804101610021D4
:1021100041618161C1610162FEF78AFC08B1FEF78D
:10212000C9FA10BD0054004050000020A0860100F4
:1021300010B50E480E4908604FF4827048600021C7
:102140000B488160C160016141614FF400718161A0
:102150001821C16100210162416281620A21C162CC
:10216000FFF7A0F908B1FEF7A5FA10BD0030014055
:10217000A400002000B587B00020039004900590D3
:102180000690019002901548154908604720486064
:102190000021134881604FF6FE71C160002101618A
:1021A00041618161FFF73AFD08B1FEF783FA4FF410
:1021B0008050039003A90A48FFF7B2FD08B1FEF76B
:1021C00079FA00200190029001A90548FFF7E4FC8C
:1021D00008B1FEF76FFA07B000BD0000002C014007
:1021E000FC00002010B50B480B4908604FF4E130AB
:1021F0004860002108488160C16001610C21416193
:1022000000218161C161FFF711FE08B1FEF752FAAA
:1022100010BD0000004800404401002000BFFEE760
:1022200000BFFEE708B5002000F0F8F850208DF858
:10223000000073208DF801006423022269460348E0
:10224000FFF791FA012000F0E9F808BD3002002004
:102250000FB47CB506460C461546582209A95F48BE
:10226000FEF719F95E4806605E4804805E48058006
:10227000012000F0D3F8002000F0B8F80520FEF7A8
:102280001DFA0821002000F021FA3F21012000F072
:102290001DFA0321022000F019FA0321084600F07C
:1022A00015FA0321042000F011FA0221052000F0A4
:1022B0000DFA0F21062000F009FA0E21072000F088
:1022C00005FA0021082000F001FA0021092000F0A1
:1022D000FDF9E7208DF804008DF803008DF8020069
:1022E0008DF801008DF80000052269460A2000F0F3
:1022F00005FAC2208DF804008DF803008DF8020065
:102300008DF801008DF80000052269460B2000F0D1
:10231000F5F9C3210C2000F0D9F9C4210D2000F0FB
:10232000D5F9C5210E2000F0D1F9C6210F2000F00B
:10233000CDF9E7208DF804008DF803008DF8020038
:102340008DF801008DF8000005226946102000F08C
:10235000D5F90021112000F0B9F90021122000F078
:10236000B5F90021132000F0B1F90021142000F08C
:10237000ADF90021152000F0A9F90021162000F088
:10238000A5F9FFF74FFF00211C2000F09FF9002165
:102390001D2000F09BF900F0F9FC0F21084600F029
:1023A00087F9032000F056F9012000F023F90220FC
:1023B00000F0FDF800F04AF8202000F06DF900F080
:1023C000E3F84C2000F009F900F05AF800F052F858
:1023D00000F090F87CBC5DF814FB00003002002097
:1023E000480000204C0000204E00002010B504469C
:1023F0003CB101220748018807480068FEF70CFB42
:1024000006E000220348018803480068FEF704FB49
:1024100010BD00004E0000204800002010B504460A
:102420003CB101220748018807480068FEF7F4FA2A
:1024300006E000220348018803480068FEF7ECFA32
:1024400010BD00004C0000204800002010B51D20E9
:1024500000F05CF820F0040421461D2000F036F95D
:1024600000211C2000F032F900200149087010BD45
:102470004300002010B5FF21E22000F027F910BD35
:1024800010B5FF21E12000F021F910BD7FB5044611
:1024900024B9144ADDE90210C2E90010062C1FDC41
:1024A000022C06DA1049085D052202A900F026F97F
:1024B00005E00D49085D012202A900F01FF90B4952
:1024C000085D0B49097800F001F9022000F01EF8C0
:1024D0000121A1400843C5B22946022000F0F6F8C8
:1024E0007FBD000038000020D6360008DD36000829
:1024F0004200002010B5002000F008F820F002048F
:102500002146002000F0E2F810BD000038B5044676
:102510000020FFF783FF04F01F008DF80000642304
:10252000012269460848FFF71EF9642301220DF1D4
:1025300001010548FFF758F89DF801500120FFF709
:102540006DFF284638BD000030020020F8B5044673
:102550000D4616460020FFF761FF04F01F008DF8BE
:1025600000006423012269460648FFF7FCF8642353
:10257000324629460348FFF737F80120FFF74EFFA0
:10258000F8BD00003002002010B57021072000F0D7
:102590009DF810BD10B5044624B13F21012000F084
:1025A00095F803E00021012000F090F810BD70B50F
:1025B00005460020FFF7AAFF20F00C0445B1012DCD
:1025C00002D144F0080403E044F0080444F0040499
:1025D0002146002000F07AF870BD70B504467F25D2
:1025E0007F2C01DA204600E07F200146052000F024
:1025F0006DF870BD70B5054600260620FFF786FF12
:10260000044600201249087024F02804022D03D14A
:10261000087044F020040AE0012D05D101200C4986
:10262000087044F0080402E00020094908702146BF
:10263000062000F04BF80620FFF768FFA04201D10A
:10264000012602E0002002490870304670BD0000FB
:102650004500002070B504460620FFF757FF0546E9
:1026600025F00605032C02D145F006050EE0022CEC
:1026700002D145F0040509E0012C02D145F0020524
:1026800004E01CB1042C01D145F0060529460620C2
:1026900000F01CF870BD00002021202801DA02465D
:1026A00000E02022014B1A70704700004200002019
:1026B00070B504460D4604F00F02284662F31F1061
:1026C0000146042000F002F870BD000038B5054650
:1026D0000C460020FFF7A2FE45F020008DF8000018
:1026E0008DF801406423022269460348FFF73BF856
:1026F0000120FFF793FE38BD30020020F8B50446F4
:102700000D4616460020FFF789FE44F020008DF8A4
:1027100000006423012269460648FFF724F8642379
:10272000324629460348FFF71EF80120FFF776FEE0
:10273000F8BD0000300200207047000008B50849CD
:102740000968C9084FF47A72B1FBF2F14143009174
:1027500000BF00BF00994A1E00920029F9D108BDB0
:1027600034000020F8B504460E4615466068B0F502
:10277000827F0DD1A068B0F5004F03D0A068B0F5FE
:10278000806F05D12068006820F040002168086053
:102790006068B0F5827F11D1A068B0F5806F0DD16F
:1027A0003346002201212046009500F02BF898B115
:1027B000606D40F0200060650320F8BD33460022C4
:1027C00080212046009500F01DF828B1606D40F092
:1027D000200060650320F0E70020EEE7F8B504462E
:1027E0000D4616462B46002280212046009600F01A
:1027F00009F828B1606D40F0200060650320F8BD45
:102800000020FCE72DE9F84F04460D4690461E4691
:10281000DDF82890FEF706F9A0EB0900371AFEF75D
:1028200001F982462C480068C0F3CB307843009011
:1028300045E0701C002842D0FEF7F4F8A0EB0A0037
:10284000B84200D2A7BB2068406820F0E0002168B1
:1028500048606068B0F5827F0DD1A068B0F5004F88
:1028600003D0A068B0F5806F05D12068006820F023
:10287000400021680860A06AB0F5005F0DD100BF7C
:102880002068006820F40050216808602068006813
:1028900040F400502168086000BF012084F8510016
:1028A00000BF002084F8500000BF0320BDE8F88F6F
:1028B000FFE7009800B900270098401E00902068AC
:1028C00080682840A84201D1012000E00020404556
:1028D000AFD10020EAE7000034000020704710B5B7
:1028E000FEF7C8F910BD00B58FB0282105A8FDF787
:1028F00004FE14216846FDF700FE01200590000447
:102900000690002007900120099002200C90C1033E
:102910000D914FF4E0110E9105A8FEF791FB08B15F
:10292000FDF7C8FE0F2000900220019000200290C9
:102930004FF4806003900020049002216846FEF767
:102940005BFA08B1FDF7B6FE0FB000BD704700009E
:1029500010B50268184B984208D0B0F1804F05D0EE
:10296000164B984202D0164B984203D122F07002C7
:102970004B681A43104B984208D0B0F1804F05D0F5
:102980000E4B984202D00E4B984203D122F4407273
:10299000CB681A4322F080034C6943EA04020260C8
:1029A0008B68C3620B688362034B984201D10B6949
:1029B00003630123436110BD002C0140000400406B
:1029C0000008004030B50C46816821F47F4142EA9E
:1029D000032525432943816030BD0A46816821F0E3
:1029E000700142F0070319438160704730B50B4610
:1029F0001446026A056A25F001050562816921F025
:102A0000F00141EA041122F00A021A4381610262D4
:102A100030BD30B50B461446026A056A25F0100534
:102A20000562816921F4704141EA043122F0A0027B
:102A300042EA03128161026230BD000070B50446B3
:102A40002168096921F44051E2681143226811614B
:102A50002269A1681143626941EA02052168C968D7
:102A600041F20C62914329432268D160216849698F
:102A700021F44071A2691143226851612D4A2168F5
:102A8000914202D1FEF794FA01E0FEF781FA00EBE1
:102A9000C00101EB001162689200B1FBF2F100EBA2
:102AA000C00202EB001263689B00B2FBF3F26423E6
:102AB000B2FBF3F202EBC20303EB0212A1EB8201C1
:102AC000322202EB01116422B1FBF2F101F0F001BC
:102AD00000EBC00202EB001263689B00B2FBF3F252
:102AE0006423B2FBF3F201EB021200EBC00101EB35
:102AF000001163689B00B1FBF3F100EBC00303EB33
:102B000000136668B600B3FBF6F36426B3FBF6F376
:102B100003EBC30606EB0313A1EB8301322303EBA4
:102B200001116423B1FBF3F101F00F01114422689C
:102B3000916070BD003801402DE9F04104460D461A
:102B400017469846069E34E0701C88B32EB1FDF7F8
:102B500069FFA0EB0800B0422BD900BF00BF21687D
:102B60000C3151E8001F21F4D07021680C3141E88C
:102B70000002002AF3D100BF00BF00BF216814315A
:102B800051E8001F21F001002168143141E80002E2
:102B9000002AF3D100BF202084F8410084F84200CD
:102BA00000BF002084F8400000BF0320BDE8F08192
:102BB000FFE7206800682840A84201D1012000E01A
:102BC0000020B842C0D00020F0E700BFFEE70000C0
:102BD00002480068C0F30220704700000CED00E0DE
:102BE00010B5002804DB0A07130E054A135406E04B
:102BF0000A07140E034A00F00F031B1FD45410BD24
:102C000000E400E018ED00E030380A2801D201208D
:102C100070470020704700000021054A1268516289
:102C200000BF03490968496A8142FAD3704700002E
:102C3000FC000020ACB0FEF729F8FFF754FEFFF7C8
:102C4000D1F9FFF775FAFFF755FAFFF793FAFFF797
:102C5000C9FA4248FFF72EF83622414916A8FDF777
:102C60001AFC3F48C08EADF88E003D48816B249120
:102C7000808FADF894003A48C08FADF896001122CD
:102C80003749403126A8FDF706FC354890F8510039
:102C90008DF8A9003248406D2B90542217A9684640
:102CA000FDF7F9FB082210212E48169BFFF7D0FAFA
:102CB00026222D491AA8FDF7EEFB2B48C08CADF853
:102CC0008E002948816A2491808DADF894002648B1
:102CD000C08DADF896002448006B26902248406BCA
:102CE000279009222049383128A8FDF7D4FB1E4837
:102CF00090F841008DF8A9001B4890F842008DF82B
:102D0000AA001948406C2B9038221EA96846FDF78E
:102D1000C2FB1AA80FC800F02DF800F037F83420D5
:102D2000FFF75BFC2020FFF7B7FC0120FFF732FC28
:102D30000E480CC80020FFF7A9FB0DE04FF400512E
:102D40000B48FDF75FFE002304E04CF25030FFF724
:102D500063FF5B1C142BF8DBF0E70000FC00002095
:102D6000A4000020000801404401002010000020C1
:102D7000001001400FB410B5482202A90248FDF727
:102D80008AFB10BC5DF814FB8802002030B59FB0B0
:102D9000F3A106A8FDF720FA06A8FDF75DFB85B2B2
:102DA0000A232A4606A9FB48FFF7C0F80020FFF7D0
:102DB000ADFB044604F0080060B104F0040020B14B
:102DC000F5A106A8FDF708FA08E0FAA106A8FDF7A4
:102DD00003FA03E0FEA106A8FDF7FEF906A8FDF739
:102DE0003BFB85B20A232A4606A9EA48FFF79EF86C
:102DF0000120FFF78BFB044604F02000002801DDD2
:102E0000012000E0002004F01001002901DD012173
:102E100000E0002104F00802002A01DD012200E0A8
:102E2000002204F00403002B01DD012300E0002355
:102E3000CDE90032CDE9021004F00200002801DDE6
:102E4000012000E00020034604F00100002801DD1D
:102E5000012000E000200246E24906A8FDF7BCF987
:102E600006A8FDF7F9FA85B20A232A4606A9C94839
:102E7000FFF75CF80220FFF749FB044604F020004E
:102E8000002801DD012000E0002004F010010029ED
:102E900001DD012100E0002104F00802002A01DD2B
:102EA000012200E0002204F00403002B01DD0123D5
:102EB00000E00023CDE90032CDE9021004F0020069
:102EC000002801DD012000E00020034604F001009D
:102ED000002801DD012000E000200246C24906A8CA
:102EE000FDF77AF906A8FDF7B7FA85B20A232A4654
:102EF00006A9A848FFF71AF80320FFF707FB00F020
:102F00000304A41C2246B9A106A8FDF765F906A88A
:102F1000FDF7A2FA85B20A232A4606A99D48FFF7C3
:102F200005F80520FFF7F2FA044604F07F02B6A187
:102F300006A8FDF751F906A8FDF78EFA85B20A2317
:102F40002A4606A99348FEF7F1FF0620FFF7DEFAAE
:102F5000044604F0080020B1B0A106A8FDF73CF932
:102F600003E0B4A106A8FDF737F906A8FDF774FA47
:102F700085B20A232A4606A98648FEF7D7FF04F041
:102F80000604641024B9B1A106A8FDF725F913E0E1
:102F9000012C04D1B2A106A8FDF71EF90CE0022C09
:102FA00004D1B4A106A8FDF717F905E0032C03D15D
:102FB000B5A106A8FDF710F906A8FDF74DFA85B2F0
:102FC0000A232A4606A97348FEF7B0FF052204A982
:102FD0000A20FFF7BBFA9DF810009DF811109DF82C
:102FE0001220CDE9002102909DF813309DF81420A5
:102FF000AAA106A8FDF7F0F806A8FDF72DFA85B2FC
:103000000A232A4606A96348FEF790FF052204A971
:103010000B20FFF79BFA9DF810109DF811009DF80A
:103020001220CDE9002002919DF813309DF8142064
:10303000A6A106A8FDF7D0F806A8FDF70DFA85B2FF
:103040000A232A4606A95348FEF770FF012204A965
:103050000C20FFF77BFA9DF81020A8A106A8FDF729
:10306000BBF806A8FDF7F8F985B20A232A4606A997
:103070004848FEF75BFF012204A90D20FFF766FA1E
:103080009DF81020A7A106A8FDF7A6F806A8FDF751
:10309000E3F985B20A232A4606A93E48FEF746FF11
:1030A000012204A90E20FFF751FA9DF81020A7A1D4
:1030B00006A8FDF791F806A8FDF7CEF985B20A2318
:1030C0002A4606A93348FEF731FF012204A90F2042
:1030D000FFF73CFA9DF81020A6A106A8FDF77CF8A2
:1030E00006A8FDF7B9F985B20A232A4606A9294898
:1030F000FEF71CFF052204A91020FFF727FA9DF810
:1031000010009DF811109DF81220CDE900210290C9
:103110009DF813309DF81420A0A106A8FDF75CF8D7
:1031200006A8FDF799F985B20A232A4606A9194887
:10313000FEF7FCFE1120FFF7E9F9044604F03F0218
:10314000A1A106A8FDF748F806A8FDF785F985B204
:103150000A232A4606A90F48FEF7E8FE122041E19D
:103160000D0A2A2A2A2A2A2A2A2A2A2A2A2A2A2AFC
:103170002A2A2A2A2A2A2A2A2A2A2A2A2A2A2A2AAF
:103180002A2A2A2A2A2A2A2A2A2A2A2A2A2A2A2A9F
:103190000D0A0000880200204352433A0D0A090933
:1031A000456E61626C65642C2032204279746573CF
:1031B000200D0A004352433A0D0A0909456E616227
:1031C0006C65642C20312042797465200D0A000062
:1031D0004352433A0D0A090944697361626C65649C
:1031E000200D0A001C37000860370008534554556D
:1031F000505F41573A0D0A090925642062797465C8
:1032000073200D0A0000000052465F43483A0D0A41
:1032100009092564204348200D0A000044617461B7
:1032200020526174653A0D0A0909324D62707320AB
:103230000D0A00004461746120526174653A0D0A00
:103240000909314D627073200D0A000052465F502B
:1032500057523A0D0A09092D31386442200D0A00EF
:1032600052465F5057523A0D0A09092D31326442D5
:10327000200D0A0052465F5057523A0D0A09092D97
:10328000366442200D0A000052465F5057523A0DF4
:103290000A0909306442200D0A00000052585F50AC
:1032A000697065302041646472733A0D0A0909251A
:1032B0003032582C253032582C253032582C2530BD
:1032C00032582C2530325820200D0A0052585F50B9
:1032D000697065312041646472733A0D0A090925E9
:1032E0003032582C253032582C253032582C25308D
:1032F00032582C2530325820200D0A0052585F5089
:10330000697065322041646472733A0D0A09097864
:10331000782C78782C78782C78782C2530325820B6
:10332000200D0A0052585F50697065332041646473
:1033300072733A0D0A090978782C78782C78782CF1
:1033400078782C2530325820200D0A0052585F50D2
:10335000697065342041646472733A0D0A09097812
:10336000782C78782C78782C78782C253032582066
:10337000200D0A0052585F50697065352041646421
:1033800072733A0D0A090978782C78782C78782CA1
:1033900078782C2530325820200D0A0054582041CE
:1033A000646472733A0D0A0909253032582C2530AD
:1033B00032582C253032582C253032582C253032BA
:1033C0005820200D0A00000052585F50575F5030BF
:1033D0003A0D0A09092564206279746573200D0A83
:1033E00000000000FFF792F8044604F03F0270A1CD
:1033F00006A8FCF7F1FE06A8FDF72EF885B20A2311
:103400002A4606A97148FEF791FD1320FFF77EF8C2
:10341000044604F03F026EA106A8FCF7DDFE06A8F4
:10342000FDF71AF885B20A232A4606A96748FEF76F
:103430007DFD1420FFF76AF8044604F03F026BA1FB
:1034400006A8FCF7C9FE06A8FDF706F885B20A2310
:103450002A4606A95D48FEF769FD1520FFF756F8D4
:10346000044604F03F0268A106A8FCF7B5FE06A8D2
:10347000FCF7F2FF85B20A232A4606A95348FEF755
:1034800055FD1620FFF742F8044604F03F0265A1FF
:1034900006A8FCF7A1FE06A8FCF7DEFF85B20A230A
:1034A0002A4606A94948FEF741FD1C20FFF72EF8E1
:1034B000044604F02000002801DD012000E0002087
:1034C00004F01001002901DD012100E0002104F0D9
:1034D0000802002A01DD012200E0002204F00403BA
:1034E000002B01DD012300E00023CDE90032CDE90E
:1034F000021004F00200002801DD012000E000209D
:10350000034604F00100002801DD012000E0002056
:1035100002464B4906A8FCF75FFE06A8FCF79CFF95
:1035200085B20A232A4606A92848FEF7FFFC1D207B
:10353000FEF7ECFF044604F0040020B141A106A808
:10354000FCF74AFE03E045A106A8FCF745FE06A8E5
:10355000FCF782FF85B20A232A4606A91B48FEF71C
:10356000E5FC04F0020020B142A106A8FCF734FEFD
:1035700003E047A106A8FCF72FFE06A8FCF76CFFA6
:1035800085B20A232A4606A91048FEF7CFFCAFF2FF
:10359000304106A8FCF720FE06A8FCF75DFF85B2C7
:1035A0000A232A4606A90948FEF7C0FC1FB030BD11
:1035B00052585F50575F50313A0D0A09092564206F
:1035C0006279746573200D0A0000000088020020F3
:1035D00052585F50575F50323A0D0A09092564204E
:1035E0006279746573200D0A0000000052585F5024
:1035F000575F50333A0D0A090925642062797465D2
:1036000073200D0A0000000052585F50575F50347D
:103610003A0D0A09092564206279746573200D0A40
:103620000000000052585F50575F50353A0D0A09AC
:10363000092564206279746573200D0A000000007A
:10364000AC370008454E5F44504C3A0D0A09094515
:103650006E61626C6564200D0A000000454E5F4497
:10366000504C3A0D0A090944697361626C65642023
:103670000D0A0000454E5F41434B5F5041593A0DE2
:103680000A0909456E61626C6564200D0A0000003C
:10369000454E5F41434B5F5041593A0D0A09094479
:1036A000697361626C6564200D0A00000203040501
:1036B000060708090A0B0C0D0E0F1010010200007E
:1036C00000000000000001020304060708090000D2
:1036D0000000010203040A0B0C0D0E0F101112134F
:1036E00014151630313233343536373839414243C8
:1036F000444546403058003031323334353637385F
:103700003961626364656640307800040000080037
:10371000000000000000020001000010454E414181
:103720003A0D0A090950303A0925640D0A09095071
:10373000313A0925640D0A090950323A0925640D08
:103740000A090950333A0925640D0A090950343A27
:103750000925640D0A090950353A0925640D0A0046
:10376000454E5F5258414444523A0D0A09095030BF
:103770003A0925640D0A090950313A0925640D0AF0
:10378000090950323A0925640D0A090950333A09EA
:1037900025640D0A090950343A0925640D0A0909FE
:1037A00050353A0925640D0A0000000044594E5076
:1037B000445F706970653A0D0A090950303A09256D
:1037C000640D0A090950313A0925640D0A090950A6
:1037D000323A0925640D0A090950333A0925640D66
:1037E0000A090950343A0925640D0A090950353A85
:1037F0000925640D0A0000001838000800000020A8
:10380000500000002801000868380008500000201F
:10381000E008000044010008000000000000000073
:10382000AA44332211000000AA44332211000000F0
:103830000000000000000000000000000000000088
:103840000000000010000000010000000024F4004F
:103850000000000000000000000000000000000068
:08386000000000000000000060
:04000005080000ED02
:00000001FF
